{
  "contractName": "StudentListStorage",
  "abi": [
    {
      "inputs": [
        {
          "internalType": "uint256",
          "name": "",
          "type": "uint256"
        }
      ],
      "name": "studentList",
      "outputs": [
        {
          "internalType": "uint256",
          "name": "id",
          "type": "uint256"
        },
        {
          "internalType": "string",
          "name": "name",
          "type": "string"
        },
        {
          "internalType": "uint256",
          "name": "age",
          "type": "uint256"
        },
        {
          "internalType": "address",
          "name": "account",
          "type": "address"
        }
      ],
      "stateMutability": "view",
      "type": "function",
      "constant": true
    },
    {
      "inputs": [
        {
          "internalType": "string",
          "name": "_name",
          "type": "string"
        },
        {
          "internalType": "uint256",
          "name": "_age",
          "type": "uint256"
        }
      ],
      "name": "addList",
      "outputs": [
        {
          "internalType": "uint256",
          "name": "",
          "type": "uint256"
        }
      ],
      "stateMutability": "nonpayable",
      "type": "function"
    },
    {
      "inputs": [],
      "name": "getList",
      "outputs": [
        {
          "components": [
            {
              "internalType": "uint256",
              "name": "id",
              "type": "uint256"
            },
            {
              "internalType": "string",
              "name": "name",
              "type": "string"
            },
            {
              "internalType": "uint256",
              "name": "age",
              "type": "uint256"
            },
            {
              "internalType": "address",
              "name": "account",
              "type": "address"
            }
          ],
          "internalType": "struct StudentListStorage.Student[]",
          "name": "",
          "type": "tuple[]"
        }
      ],
      "stateMutability": "view",
      "type": "function",
      "constant": true
    }
  ],
  "bytecode": "0x608060405234801561001057600080fd5b50610e0e806100206000396000f3fe608060405234801561001057600080fd5b506004361061005e576000357c0100000000000000000000000000000000000000000000000000000000900480636b29d35f146100635780637df221e914610093578063942b765a146100c6575b600080fd5b61007d6004803603810190610078919061064b565b6100e4565b60405161008a91906106b6565b60405180910390f35b6100ad60048036038101906100a891906106d1565b610273565b6040516100bd94939291906107be565b60405180910390f35b6100ce61035b565b6040516100db9190610997565b60405180910390f35b600080835111610129576040517f08c379a000000000000000000000000000000000000000000000000000000000815260040161012090610a05565b60405180910390fd5b60008211801561013a575060968211155b610179576040517f08c379a000000000000000000000000000000000000000000000000000000000815260040161017090610a71565b60405180910390fd5b6000600160008054905061018d9190610ac0565b9050600060405180608001604052808381526020018681526020018581526020013373ffffffffffffffffffffffffffffffffffffffff1681525090806001815401808255809150506001900390600052602060002090600402016000909190919091506000820151816000015560208201518160010190816102109190610d06565b506040820151816002015560608201518160030160006101000a81548173ffffffffffffffffffffffffffffffffffffffff021916908373ffffffffffffffffffffffffffffffffffffffff160217905550505060008054905091505092915050565b6000818154811061028357600080fd5b90600052602060002090600402016000915090508060000154908060010180546102ac90610b23565b80601f01602080910402602001604051908101604052809291908181526020018280546102d890610b23565b80156103255780601f106102fa57610100808354040283529160200191610325565b820191906000526020600020905b81548152906001019060200180831161030857829003601f168201915b5050505050908060020154908060030160009054906101000a900473ffffffffffffffffffffffffffffffffffffffff16905084565b6060600080805480602002602001604051908101604052809291908181526020016000905b828210156104ae5783829060005260206000209060040201604051806080016040529081600082015481526020016001820180546103bd90610b23565b80601f01602080910402602001604051908101604052809291908181526020018280546103e990610b23565b80156104365780601f1061040b57610100808354040283529160200191610436565b820191906000526020600020905b81548152906001019060200180831161041957829003601f168201915b50505050508152602001600282015481526020016003820160009054906101000a900473ffffffffffffffffffffffffffffffffffffffff1673ffffffffffffffffffffffffffffffffffffffff1673ffffffffffffffffffffffffffffffffffffffff168152505081526020019060010190610380565b5050505090508091505090565b6000604051905090565b600080fd5b600080fd5b600080fd5b600080fd5b6000601f19601f8301169050919050565b7f4e487b7100000000000000000000000000000000000000000000000000000000600052604160045260246000fd5b610522826104d9565b810181811067ffffffffffffffff82111715610541576105406104ea565b5b80604052505050565b60006105546104bb565b90506105608282610519565b919050565b600067ffffffffffffffff8211156105805761057f6104ea565b5b610589826104d9565b9050602081019050919050565b82818337600083830152505050565b60006105b86105b384610565565b61054a565b9050828152602081018484840111156105d4576105d36104d4565b5b6105df848285610596565b509392505050565b600082601f8301126105fc576105fb6104cf565b5b813561060c8482602086016105a5565b91505092915050565b6000819050919050565b61062881610615565b811461063357600080fd5b50565b6000813590506106458161061f565b92915050565b60008060408385031215610662576106616104c5565b5b600083013567ffffffffffffffff8111156106805761067f6104ca565b5b61068c858286016105e7565b925050602061069d85828601610636565b9150509250929050565b6106b081610615565b82525050565b60006020820190506106cb60008301846106a7565b92915050565b6000602082840312156106e7576106e66104c5565b5b60006106f584828501610636565b91505092915050565b600081519050919050565b600082825260208201905092915050565b60005b8381101561073857808201518184015260208101905061071d565b60008484015250505050565b600061074f826106fe565b6107598185610709565b935061076981856020860161071a565b610772816104d9565b840191505092915050565b600073ffffffffffffffffffffffffffffffffffffffff82169050919050565b60006107a88261077d565b9050919050565b6107b88161079d565b82525050565b60006080820190506107d360008301876106a7565b81810360208301526107e58186610744565b90506107f460408301856106a7565b61080160608301846107af565b95945050505050565b600081519050919050565b600082825260208201905092915050565b6000819050602082019050919050565b61083f81610615565b82525050565b600082825260208201905092915050565b6000610861826106fe565b61086b8185610845565b935061087b81856020860161071a565b610884816104d9565b840191505092915050565b6108988161079d565b82525050565b60006080830160008301516108b66000860182610836565b50602083015184820360208601526108ce8282610856565b91505060408301516108e36040860182610836565b5060608301516108f6606086018261088f565b508091505092915050565b600061090d838361089e565b905092915050565b6000602082019050919050565b600061092d8261080a565b6109378185610815565b93508360208202850161094985610826565b8060005b8581101561098557848403895281516109668582610901565b945061097183610915565b925060208a0199505060018101905061094d565b50829750879550505050505092915050565b600060208201905081810360008301526109b18184610922565b905092915050565b7f4e616d652063616e6e6f7420626520656d707479000000000000000000000000600082015250565b60006109ef601483610709565b91506109fa826109b9565b602082019050919050565b60006020820190508181036000830152610a1e816109e2565b9050919050565b7f496e76616c696420616765000000000000000000000000000000000000000000600082015250565b6000610a5b600b83610709565b9150610a6682610a25565b602082019050919050565b60006020820190508181036000830152610a8a81610a4e565b9050919050565b7f4e487b7100000000000000000000000000000000000000000000000000000000600052601160045260246000fd5b6000610acb82610615565b9150610ad683610615565b9250828201905080821115610aee57610aed610a91565b5b92915050565b7f4e487b7100000000000000000000000000000000000000000000000000000000600052602260045260246000fd5b60006002820490506001821680610b3b57607f821691505b602082108103610b4e57610b4d610af4565b5b50919050565b60008190508160005260206000209050919050565b60006020601f8301049050919050565b60008160020a8302905092915050565b600060088302610bb97fffffffffffffffffffffffffffffffffffffffffffffffffffffffffffffffff82610b79565b610bc38683610b79565b95508019841693508086168417925050509392505050565b6000819050919050565b6000610c00610bfb610bf684610615565b610bdb565b610615565b9050919050565b6000819050919050565b610c1a83610be5565b610c2e610c2682610c07565b848454610b89565b825550505050565b600090565b610c43610c36565b610c4e818484610c11565b505050565b5b81811015610c7257610c67600082610c3b565b600181019050610c54565b5050565b601f821115610cb757610c8881610b54565b610c9184610b69565b81016020851015610ca0578190505b610cb4610cac85610b69565b830182610c53565b50505b505050565b60008160020a8304905092915050565b6000610cdd60001984600802610cbc565b1980831691505092915050565b6000610cf68383610ccc565b9150826002028217905092915050565b610d0f826106fe565b67ffffffffffffffff811115610d2857610d276104ea565b5b610d328254610b23565b610d3d828285610c76565b600060209050601f831160018114610d705760008415610d5e578287015190505b610d688582610cea565b865550610dd0565b601f198416610d7e86610b54565b60005b82811015610da657848901518255600182019150602085019450602081019050610d81565b86831015610dc35784890151610dbf601f891682610ccc565b8355505b6001600288020188555050505b50505050505056fea26469706673582212204f5e305d92a5ba001f047bfbfa0cab3da90235c56c3e774ca7bc9942c096d4d064736f6c63430008150033",
  "immutableReferences": {},
  "source": "// SPDX-License-Identifier: CPL-3.0\n//MIT...\npragma solidity >=0.4.16 <0.9.0;\n\ncontract StudentListStorage {\n    struct Student {\n        uint id;\n        string name;\n        uint age;\n        address account;\n    }\n\n    //\n    Student[] public studentList; //getter()\n\n    //memory  calldata  storage gas\n    function addList(string memory _name, uint _age) public returns (uint) {\n        require(bytes(_name).length > 0, \"Name cannot be empty\");\n        require(_age > 0 && _age <= 150, \"Invalid age\");\n\n        uint index = studentList.length + 1;\n        studentList.push(Student(index, _name, _age, msg.sender));\n        return studentList.length;\n    }\n\n    //view   pure \n    function getList() public view returns (Student[] memory) {\n        Student[] memory list = studentList;\n        return list;\n    }\n}\n",
  "sourcePath": "E:\\code\\DeFi\\myapp\\contracts\\StudentListStorage.sol",
  "compiler": {
    "name": "solc",
    "version": "0.8.21+commit.d9974bed.Emscripten.clang"
  },
  "schemaVersion": "3.4.16",
  "updatedAt": "2025-12-11T08:17:23.549Z",
  "networkType": "ethereum",
  "devdoc": {
    "kind": "dev",
    "methods": {},
    "version": 1
  },
  "userdoc": {
    "kind": "user",
    "methods": {},
    "version": 1
  }
}